{"abi":[{"type":"function","name":"computeX1","inputs":[{"name":"x1","type":"uint256","internalType":"uint256"},{"name":"x2","type":"uint256","internalType":"uint256"},{"name":"x3","type":"uint256","internalType":"uint256"}],"outputs":[{"name":"X1","type":"uint256[2]","internalType":"uint256[2]"}],"stateMutability":"view"},{"type":"function","name":"verifyComputation","inputs":[{"name":"A1","type":"uint256[2]","internalType":"uint256[2]"},{"name":"B2","type":"uint256[2]","internalType":"uint256[2]"},{"name":"C1","type":"uint256[2]","internalType":"uint256[2]"},{"name":"x1","type":"uint256","internalType":"uint256"},{"name":"x2","type":"uint256","internalType":"uint256"},{"name":"x3","type":"uint256","internalType":"uint256"}],"outputs":[{"name":"","type":"bool","internalType":"bool"}],"stateMutability":"view"}],"bytecode":{"object":"0x608060405234801561001057600080fd5b506106fb806100206000396000f3fe608060405234801561001057600080fd5b50600436106100365760003560e01c8063107ee4a51461003b5780636409849214610064575b600080fd5b61004e6100493660046104ec565b610087565b60405161005b9190610518565b60405180910390f35b6100776100723660046105c7565b610107565b604051901515815260200161005b565b61008f6104ce565b600061009e600160028761023e565b905060006100af600160028761023e565b905060006100c0600160028761023e565b8351602085015184519293506000926100e39291908660015b602002015161033a565b8051602082015184519293506100fb928560016100d9565b98975050505050505050565b600080610115858585610087565b6040805160808101825260038183019081526004606083015281528151808301909252600582526006602083810191909152810191909152909150600061015c8a83610434565b905060008060086001600160a01b03168360405161017a9190610671565b600060405180830381855afa9150503d80600081146101b5576040519150601f19603f3d011682016040523d82523d6000602084013e6101ba565b606091505b5091509150816102095760405162461bcd60e51b81526020600482015260156024820152742830b4b934b7339031b432b1b5903330b4b632b21760591b60448201526064015b60405180910390fd5b8060008151811061021c5761021c61062b565b01602001516001600160f81b0319161515955050505050509695505050505050565b6102466104ce565b604080516020810186905290810184905260608101839052600090819060079060800160408051601f198184030181529082905261028391610671565b600060405180830381855afa9150503d80600081146102be576040519150601f19603f3d011682016040523d82523d6000602084013e6102c3565b606091505b5091509150816103155760405162461bcd60e51b815260206004820152601d60248201527f5363616c6172206d756c7469706c69636174696f6e206661696c65642e0000006044820152606401610200565b808060200190518101906103299190610684565b602085015283525090949350505050565b6103426104ce565b60408051602081018790529081018590526060810184905260808101839052600090819060069060a00160408051601f198184030181529082905261038691610671565b600060405180830381855afa9150503d80600081146103c1576040519150601f19603f3d011682016040523d82523d6000602084013e6103c6565b606091505b50915091508161040e5760405162461bcd60e51b815260206004820152601360248201527222a19030b23234ba34b7b7103330b4b632b21760691b6044820152606401610200565b808060200190518101906104229190610684565b60208501528352509095945050505050565b8151602080840151604080518084019490945283810191909152805180840382018152606080850183528551805190850151878601518051960151608088019290925260a087015260c086019490945260e08086019490945282518086039094018452610100850190925290929091906104b59083908390610120016106a8565b6040516020818303038152906040529250505092915050565b60405180604001604052806002906020820280368337509192915050565b60008060006060848603121561050157600080fd5b505081359360208301359350604090920135919050565b60408101818360005b6002811015610540578151835260209283019290910190600101610521565b50505092915050565b600082601f83011261055a57600080fd5b6040516040810181811067ffffffffffffffff8211171561058b57634e487b7160e01b600052604160045260246000fd5b80604052508060408401858111156105a257600080fd5b845b818110156105bc5780358352602092830192016105a4565b509195945050505050565b60008060008060008061012087890312156105e157600080fd5b6105eb8888610549565b95506105fa8860408901610549565b94506106098860808901610549565b935060c0870135925060e0870135915061010087013590509295509295509295565b634e487b7160e01b600052603260045260246000fd5b6000815160005b818110156106625760208185018101518683015201610648565b50600093019283525090919050565b600061067d8284610641565b9392505050565b6000806040838503121561069757600080fd5b505080516020909101519092909150565b60006106bd6106b78386610641565b84610641565b94935050505056fea2646970667358221220515eba1f361d6792a52c3ffddb742568b21224bd455fe05e434eae9837ea63a564736f6c63430008170033","linkReferences":{}},"methodIdentifiers":{"computeX1(uint256,uint256,uint256)":"107ee4a5","verifyComputation(uint256[2],uint256[2],uint256[2],uint256,uint256,uint256)":"64098492"},"id":23}